:1000000027C041C040C03FC03EC03DC03CC03BC017
:100010003AC039C038C0C0C136C035C034C033C0A2
:1000200032C000003A00370000003B0038000101F8
:100030000101010101010202020102040810204035
:10004000800402010000000000040302010000001F
:1000500011241FBECFE5D2E0DEBFCDBF10E0A0E689
:10006000B0E0EAE8F5E002C005900D92AC37B107C8
:10007000D9F720E0ACE7B0E001C01D92AD39B2077E
:10008000E1F7D4D180C2BCCFEEE4F0E02491E3E408
:10009000F0E09491E8E3F0E0E491EE2361F12223B3
:1000A000B1F0223089F028F4213089F420B72F777D
:1000B0000DC0233029F0243051F42FB52F7D02C01C
:1000C0002FB52F772FBD03C020B72F7D20BFF0E0C5
:1000D000EE0FFF1FE85DFF4FA591B4912FB7F89485
:1000E000811105C08C91E92FE095E82302C0EC91C5
:1000F000E92BEC932FBF0895E0918900E13150F492
:10010000EF5FE0938900F0E0E657FF4F808381E0E6
:1001100090E0089580E090E008953FB7F8948091D2
:10012000810090918200A0918300B091840022B759
:1001300008B600FE05C02F3F19F00196A11DB11DA4
:100140003FBFBA2FA92F982F8827820F911DA11D7D
:10015000B11DBC01CD0146E0660F771F881F991FB6
:100160004A95D1F708958F929F92AF92BF92CF9206
:10017000DF92EF92FF926B017C01CFDF4B015C01BC
:10018000C114D104E104F104E9F0C7DFDC01CB01C3
:1001900088199909AA09BB09883E9340A105B105B0
:1001A00078F321E0C21AD108E108F10888EE880E40
:1001B00083E0981EA11CB11CC114D104E104F10418
:1001C00021F7DECFFF90EF90DF90CF90BF90AF9000
:1001D0009F908F900895DE98DC9ACC9BFECF00C054
:1001E00000C0DE9A00C000C000009EB1892F80725E
:1001F00095FD04C094E090939C00089581E00895DB
:10020000DC9ADC9BFECF00C000C00000DE9800C07E
:1002100000C0DC98DE9A779905C083E080939C004B
:1002200080E0089581E008958EB98BE200C000C09F
:1002300000008DB9CC9BFECF00C000C08DB9769B6D
:10024000F5CF00C000C000008FB19FEF9FB9D69AD4
:100250000895CF92DF92EF92FF920F931F93CF9367
:10026000DF93082F90919C00916090939C00809167
:100270008A0080FD03C0926090939C00C1DF8823B8
:1002800009F451C0102FCAE8D0E0DD24DA94CC2460
:10029000C39490919C0093709E012F5F3F4F790112
:1002A000992369F1DC9888818FB980EFBDDFD698FA
:1002B0008EEFBADF90919C0080FF0BC0892F817078
:1002C00090FF05C081E080939C0080E02CC092E00C
:1002D0000FC0892F8570843071F490918A009160ED
:1002E00090938A00C0929C008BDF811115C09AE028
:1002F00090939C0018C09E7F90939C000BC0D69852
:1003000080EF92DF8883113011F4DFB801C01FB88D
:100310008EEF8ADFE70103C0102FCAE8D0E011504A
:1003200009F0B7CF81E0DF91CF911F910F91FF903E
:10033000EF90DF90CF9008958091890010929C00FB
:100340008F5F87DF10928900882319F044DF8111C5
:1003500003C080919C00089580E00895CF93DF93BF
:1003600000D0CDB7DEB710928900880F80938A0045
:10037000872F4A836983C0DE6981862FBDDE4A816B
:10038000842FBADED9DF65E070E080E090E00F9066
:100390000F90DF91CF91E7CE1F920F920FB60F9281
:1003A00011242F933F938F939F93AF93BF9380918B
:1003B0007D0090917E00A0917F00B09180003091EF
:1003C0007C0020E3230F2D3720F44096A11DB11DA2
:1003D00005C023EB230F4196A11DB11D20937C0086
:1003E00080937D0090937E00A0937F00B093800067
:1003F0008091810090918200A0918300B09184004F
:100400000196A11DB11D8093810090938200A0935D
:100410008300B0938400BF91AF919F918F913F91E2
:100420002F910F900FBE0F901F901895789480B762
:10043000826080BF80B7816080BF83B7826083BFE6
:1004400083B7816083BF89B7816089BF1EBC8EB5C9
:1004500082608EBD8FB581608FBD3298319A309A9F
:10046000379ADE9ADC9AD49AD69A8FEF8FB98AE2BD
:100470008DB980EF8EB964E670E080E090E073DEC5
:10048000E3E4F0E02491E8E3F0E08491882399F03C
:1004900090E0880F991FFC01EE5DFF4FA591B4918C
:1004A000FC01E85DFF4F859194918FB7F894EC9132
:1004B000E22BEC938FBF80E0E7DD10928800109272
:1004C000870060918700709188006B31710588F416
:1004D000FB01E05AFF4F408180E590E03FDF8091D3
:1004E0008700909188000196909388008093870000
:1004F000E8CF109288001092870060918700709179
:1005000088006832710584F4645C7F4F4FEF80E5AA
:1005100090E024DF8091870090918800019690936D
:10052000880080938700E9CF1092890080EA809349
:100530008A0080E0E1DD85E0DFDDFEDE10928600EE
:1005400081E08093850081EA80938A0010929C006C
:1005500082E07FDE81113FDEE091860080918500A0
:100560008E1759F0EF5FE0938600F0E0E657FF4FFB
:100570008081843711F481E087DDC0E0D0E02097EE
:0A058000F1F33EDDFCCFF894FFCF4D
:10058A00FFFFFF73657420616464726573732030C2
:0C059A0078354120746F20307832360034
:00000001FF
