:100000002CC050C044C343C34DC04CC04BC04AC0B9
:1000100049C048C047C0F1C245C044C043C042C007
:1000200041C000003900360000003A0037000000EF
:100030003B0038000101010101010101020202013E
:1000400002040810204080040201000000000004A7
:100050000302010000007405DD0511241FBECFE579
:10006000D2E0DEBFCDBF11E0A0E6B0E0E6E4FCE008
:1000700002C005900D92A035B107D9F721E0A0E5A7
:10008000B1E001C01D92AF3DB207E1F710E0CCE254
:10009000D0E003C02197FE01C0D5CB32D107D1F704
:1000A00070D3C5C5ADCFCF92DF92EF92FF920F9381
:1000B0001F93CF93DF936C017A018B01C0E0D0E0F6
:1000C000CE15DF0589F0D8016D918D01D601ED9136
:1000D000FC910190F081E02DC6010995892B11F466
:1000E0007E0102C02196ECCFC701DF91CF911F9115
:1000F0000F91FF90EF90DF90CF90089590E0FC017A
:10010000E65BFF4F3491FC01E15CFF4F2491FC0161
:10011000EC5CFF4FE491EE2351F13323B1F0323028
:1001200089F028F4313089F480B78F770DC03330EF
:1001300029F0343051F48FB58F7D02C08FB58F77A1
:100140008FBD03C080B78F7D80BFF0E0EE0FFF1F33
:10015000E25DFF4FA591B4918FB7F894EC916111D6
:1001600003C020952E2301C02E2B2C938FBF089502
:10017000CF93DF9390E0FC01E15CFF4F2491FC0101
:10018000EC5CFF4F8491882361F190E0880F991F08
:10019000FC01E85DFF4FC591D491FC01E25DFF4F8A
:1001A000A591B491611109C09FB7F89488812095F9
:1001B00082238883EC912E230BC0623061F49FB7B9
:1001C000F8943881822F809583238883EC912E2B9D
:1001D0002C939FBF06C08FB7F894E8812E2B2883FD
:1001E0008FBFDF91CF9108953FB7F894809195012B
:1001F00090919601A0919701B091980122B708B60D
:1002000000FE05C02F3F19F00196A11DB11D3FBF93
:10021000BA2FA92F982F8827820F911DA11DB11DDC
:10022000BC01CD0146E0660F771F881F991F4A95D4
:10023000D1F708958F929F92AF92BF92CF92DF92A3
:10024000EF92FF926B017C01CFDF4B015C01C11487
:10025000D104E104F104E9F0C7DFDC01CB01881926
:100260009909AA09BB09883E9340A105B10578F315
:1002700021E0C21AD108E108F10888EE880E83E077
:10028000981EA11CB11CC114D104E104F10421F792
:10029000DECFFF90EF90DF90CF90BF90AF909F9018
:1002A0008F90089520919B0130919C012817390768
:1002B00071F49091990180919A01981741F0E09121
:1002C0009901F0E0E05BFE4F808190E008958FEFB0
:1002D0009FEF089508951F93CF93DF93DC015C9601
:1002E0002D913C915D972115310539F481E090E025
:1002F00013969C938E9312973DC05196ED91FC916D
:10030000529750969C915097892F80951FB75E9673
:100310004C915E9741FB772770F941FD6095F89409
:100320004081772311F0492B01C048234083E90124
:100330002197F1F748E0508160FF02C0592B01C0BE
:1003400058235083E9012197F1F76695415099F7B9
:10035000772321F090818923808303C08081982BAB
:1003600090831FBF5C968D919C915D970197F1F7EB
:1003700021E030E0C901DF91CF911F9108952091D4
:100380009B0130919C012817390769F480919A01EB
:100390002091990190E0805C9F4F821B910960E45D
:1003A00070E014D4089580E090E0089520919B01BE
:1003B00030919C0128173907B9F4909199018091E7
:1003C0009A01981789F0E0919901F0E0E05BFE4F07
:1003D00080812091990130E02F5F3F4F2F733327A9
:1003E0002093990190E008958FEF9FEF0895E09199
:1003F0009B01F0919C01E817F90769F4A389B4897E
:100400009C918589809589238C9310929C011092F0
:100410009B0181E0089580E00895089580E090E0D8
:100420000895CF93DF93009771F0FC0101900020B5
:10043000E9F73197AF01481B590BBC0180EC91E003
:1004400032DEEC0102C0C0E0D0E042E050E06CE4FB
:1004500071E080EC91E027DE8C0F9D1FDF91CF9142
:100460000895CF93DF93E091C001F091C101019015
:10047000F081E02D682F80EC91E00995EC0142E0DD
:1004800050E06CE471E080EC91E00DDE8C0F9D1F7C
:10049000DF91CF910895C7D3DE98DC9ACC9BFECF35
:1004A00000C000C0DE9A00C000C000009EB1892FCD
:1004B000807295FD04C094E09093BF01089581E09F
:1004C0000895DC9ADC9BFECF00C000C00000DE98DF
:1004D00000C000C0DC98DE9A779905C083E0809365
:1004E000BF0180E0089581E008958EB98BE200C0DD
:1004F00000C000008DB9CC9BFECF00C000C08DB9FC
:10050000769BF5CF00C000C000008FB19FEF9FB970
:10051000D69A0895CF92DF92EF92FF920F931F9396
:10052000CF93DF93082F9091BF0191609093BF010B
:100530008091AD0180FD03C092609093BF01C1DF47
:10054000882309F451C0102FCDEAD1E0DD24DA94DC
:10055000CC24C3949091BF0193709E012F5F3F4FB5
:100560007901992369F1DC9888818FB980EFBDDF2B
:10057000D6988EEFBADF9091BF0180FF0BC0892F14
:10058000817090FF05C081E08093BF0180E02CC0A6
:1005900092E00FC0892F8570843071F49091AD0185
:1005A00091609093AD01C092BF018BDF811115C0A6
:1005B0009AE09093BF0118C09E7F9093BF010BC03B
:1005C000D69880EF92DF8883113011F4DFB801C034
:1005D0001FB88EEF8ADFE70103C0102FCDEAD1E00C
:1005E000115009F0B7CF81E0DF91CF911F910F91AA
:1005F000FF90EF90DF90CF9008951F920F920FB66B
:100600000F9211242F933F938F939F93AF93BF9398
:100610008091910190919201A0919301B0919401E8
:100620003091900120E3230F2D3720F44096A11D37
:10063000B11D05C023EB230F4196A11DB11D2093D1
:1006400090018093910190939201A0939301B093B4
:1006500094018091950190919601A0919701B0919C
:1006600098010196A11DB11D80939501909396016B
:10067000A0939701B0939801BF91AF919F918F91F3
:100680003F912F910F900FBE0F901F9018951F92C2
:100690000F920FB60F9211242F933F934F935F93B6
:1006A0006F937F938F939F93AF93BF93EF93FF933A
:1006B000E0919B01F0919C01309709F451C0968D17
:1006C000A685B785858591FF04C09C91892329F46F
:1006D00047C09C91892309F043C0A389B4899C91A8
:1006E0008589809589238C93868997890197F1F76D
:1006F000608D718DA685B785558538E020E0CB01EA
:100700000197F1F7822F90E095958795282F4C91CE
:10071000452309F02068315091F7868D81FD2095A1
:1007200080919A0190E001968F73992730919901F9
:10073000381749F0A0919A01B0E0A05BBE4F2C930E
:1007400080939A0103C0868D8160868F828D938D00
:100750000197F1F7A389B4899C918589892B8C93A2
:10076000FF91EF91BF91AF919F918F917F916F9189
:100770005F914F913F912F910F900FBE0F901F905F
:100780001895789480B7826080BF80B7816080BF01
:1007900083B7826083BF83B7816083BF89B781607D
:1007A00089BF1EBC8EB582608EBD8FB581608FBD46
:1007B0003298319A309A379A1092DB011092DA010E
:1007C0001092D9011092D8011092D7011092D6013F
:1007D00087E190E09093DD018093DC019091CC0162
:1007E0009B3008F043C021E030E03093D7012093E4
:1007F000D60125E130E03093D9012093D80127E0DC
:1008000030E03093DB012093DA018BB7983010F49D
:1008100020E101C020E2822B8BBF983028F09B3072
:1008200030F420E430E005C022E330E002C020E0F4
:1008300030E03093D4012093D301983030F481E03C
:1008400001C0880F9A95EAF709C02AE030E0291B19
:10085000310981E001C0880F2A95EAF78093D5011C
:100860008091DC019091DD010197F1F78091DA012F
:100870009091DB01892B19F180919B0190919C0152
:1008800021E0803C9207D9F0009709F0B0DD80911B
:10089000DE018E7F8093DE0110929A011092990101
:1008A00080EC91E090939C0180939B01E091D301B7
:1008B000F091D40190818091D501892B8083DE9ABB
:1008C000DC9AD49AD69A8FEF8FB98AE28DB980EFED
:1008D0008EB964E670E080E090E0ACDC87EB90E0FD
:1008E000A0DD60E080E044DC61E085E041DC61E0C7
:1008F00087E03EDC61E08AE03BDC60E085E0FEDB37
:1009000060E087E0FBDB60E08AE0F8DB80EA809370
:10091000AD011092AE0182E080939D018AE5809343
:10092000AF011092BF0183E0F5DD10929D018111AE
:10093000B3DD10929F0181E080939E0181EA809354
:10094000AD011092BF0182E0E5DD8111A5DDE091EE
:100950009F0180919E018E1791F0EF5FE0939F01C0
:10096000F0E0E355FE4F8081863249F461E085E096
:10097000C5DB81EA90E055DD88E890E052DD8BE749
:1009800090E04FDD80E690E04CDD00E010E0FF24D9
:10099000F3941D9817B8369A3699FECFC4B185B135
:1009A000D0E0D82BC43883E0D80708F090C0D093AB
:1009B0003101C093300162E370E080E090E03ADC06
:1009C0008091AC01811185C0F092AC01CE01855EB1
:1009D0009240CB9720F481E444DD81E01BC0CE013E
:1009E000815E91408534910520F482E43ADD82E015
:1009F00011C0C233D10520F483E433DD83E00AC0A3
:100A0000CB58D240CF34D10520F484E42ADD84E0F1
:100A100001C080E0C091AB012C2F30E0F901ED5511
:100A2000FE4F80839091A20191110EC0F901EC5B01
:100A3000FE4F9081891306C064E170E080E090E091
:100A4000F9DB02C0F092A20161E08AE057DB64E1C9
:100A500070E080E090E0EEDB60E08AE04FDBC730E2
:100A6000D8F08091A20161E0882371F08AE046DB32
:100A70008BED90E0D6DC68EE73E080E090E0DADBAE
:100A800060E08AE03BDB08C087E038DB8AE191E088
:100A9000C8DC8CEF90E0C5DC8091AB018F5F8830C3
:100AA00018F48093AB0115C01092AB011092A20113
:100AB00080E090E0FC01ED55FE4F108201968430FD
:100AC0009105C1F79093A1018093A00102C01092FB
:100AD000AC0164E670E080E090E0ACDB011511054C
:100AE00009F457CF8DDA55CF1092C3011092C2018D
:100AF00088EE93E0A0E0B0E08093C4019093C5013C
:100B0000A093C601B093C70186E391E09093C10121
:100B10008093C0011092D7011092D6011092D90192
:100B20001092D8011092DB011092DA011092DD01CF
:100B30001092DC016091DE016E7F6D7F6093DE01BB
:100B40006695617081E0682783E0D8DA61E083E030
:100B50000FDBE2E4F0E0E491E093D001E7E3F0E0C2
:100B6000E491F0E0EE0FFF1FE25DFF4F859194915D
:100B70009093D2018093D10160E082E0F9DA809114
:100B8000DE0181FD03C061E082E0B8DA82E080939B
:100B9000CC01E1E4F0E0E491E093CD01E6E3F0E0A4
:100BA000E491F0E0EE0FFF1FEE5DFF4F8591949111
:100BB0009093CF018093CE01089586E391E09093C6
:100BC000C1018093C00180EC91E011CC97FB072E0E
:100BD00016F4009406D077FD08D00BD007FC05D0A2
:100BE0003EF4909581959F4F0895709561957F4F44
:100BF0000895AA1BBB1B51E107C0AA1FBB1FA61764
:100C0000B70710F0A61BB70B881F991F5A95A9F7B5
:100C100080959095BC01CD010895EE0FFF1F0590C2
:100C2000F491E02D099481E090E0F89400C010E088
:100C3000CCE2D0E003C0FE01F0DF2196CD32D10737
:060C4000D1F7F894FFCF8C
:100C4600456E7465722074686520636F72726563A1
:100C5600742070617373636F6465004368616C6CC4
:100C6600656E676520313A00466C61673A203068E8
:100C76005F315F72336D336D6233725F6E30772131
:100C8600004368616C6C656E676520323A20636F5D
:100C96006D706C6574650057656C636F6D65207467
:100CA6006F20746865204443203236204848562019
:100CB6004368616C6C656E676521004F6F707321C8
:100CC6002057726F6E672070617373636F64652C53
:100CD6002074727920616761696E2E00466C6167C7
:100CE6003A206833795F77683474735F7433685F6A
:100CF60070347373773072643F004368616C6C655F
:100D06006E676520313A20636F6D706C657465009F
:100D1600FF03000000006B0153000E026A01BF01D1
:100D2600D601520101040403010201020D0A00006A
:00000001FF
